:1000000000308A0082280000202A6F32EF39203623
:10001000EF392031693A73106537E3326E32693255
:10002000EF3920050D00202A6F32EF392036EF39E5
:100030002036653273106138E1336132EF392005C3
:100040000D000B08A1008B13831603178C170C14DB
:100050000000000083120C087F3903196A2803137B
:10006000A20003170D080313A30003170F080313BF
:10007000A40022080C1E3A289900230803178D00BB
:100080000313240803178F0083168C170C14000029
:10009000000083120C0D0E0D7F3903196A2803131B
:1000A000A20003170D080313A30003170F0803137F
:1000B000A40022080C1E5A289900230803178D005B
:1000C0000313240803178F008D0A03198F0A0313E3
:1000D000242803170313A11B8B1708002230840068
:1000E00083130008031981280630F800F701F70B85
:1000F0007728F80B76287B30F700F70B7D28800BEC
:1001000074280800840183131F3083052030831670
:100110009900A630980090308312980083161F141F
:100120009F141F159F118601FF3083128600043033
:1001300003178D0000308F00031321200430A1002D
:10014000FA30A2006E20A10BA0288316860183122C
:100150008601133003178D0000308F000313212018
:100160000430A100FA30A2006E20A10BB228831641
:04017000932863006D
:023E00000800B8
:02400E00723FFF
:00000001FF
;PIC16F877
;CRC=128C  CREATED="19-Ene-17 00:16"
