:1000000001308A001629000049346E3464346934A2
:100010006334613420346C34613420346F34703490
:1000200063346934F2346E343A3420340A340034A0
:100030003017AD20F030E7302036EF39203665320A
:100040007305000031172D28F2326E326510EC373F
:100050007310EC32E4390A003217AD216F39F234F3
:10006000ED346537F437A03020366110E432F232D7
:100070006334610500013317AD216F39F234ED347B
:100080006537F437A03020366110693DF13AE93226
:100090007232610500013417AD216F39F234ED344D
:1000A0006537F4372034E131E930A0306D31EF3974
:1000B00020366132EF390A0035172D28F2326E32C0
:1000C000651079106138E1336110F437E43773104B
:1000D000EC377310EC32E4390001F330EC34720089
:1000E000202A6F32EF392036EF392031693A731008
:1000F0006537E3326E326932EF3920050D00202A70
:100100006F32EF392036EF3920366532731061389F
:10011000E1336132EF3920050D00831603178C1788
:100120000C140000000083128C080319B1280D087C
:100130000313A80003170F080313A90003170C08E3
:1001400003130C1EA1289900280803178D00031320
:10015000290803178F008D0A03198F0A03138D28AE
:10016000031703138A110A1230290B08A8008B13F6
:10017000831603178C170C140000000083120C0860
:100180007F390319FE280313A90003170D08031371
:10019000AA0003170F080313AB0029080C1ECE2872
:1001A00099002A0803178D0003132B0803178F00EB
:1001B00083168C170C140000000083120C0D0E0D1A
:1001C0007F390319FE280313A90003170D08031331
:1001D000AA0003170F080313AB0029080C1EEE2812
:1001E00099002A0803178D0003132B0803178F00AB
:1001F0008D0A03198F0A0313B82803170313A81BCA
:100200008B1708002930840083130008031915296F
:100210000630F800F701F70B0B29F80B0A297B30A1
:10022000F700F70B1129800B0829080084018313BC
:100230001F308305203083169900A6309800903037
:1002400083129800A10183161F149F141F159F117C
:100250000430831203178D0000308F0003138D28A4
:10026000183003178D0000308F000313B5202230A3
:1002700003178D0000308F000313B5202C300317B7
:100280008D0000308F000313B5203B3003178D0025
:1002900000308F000313B5204B3003178D00003062
:1002A0008F000313B5205C3003178D0000308F00E2
:1002B0000313B5206D3003178D0000308F0003133A
:1002C000B5208C1E61291A08A00020080C1E662982
:1002D00099002008303A03197D29013A031982292F
:1002E000033A03198829013A0319A429073A031983
:1002F000BC29013A0319FB29282A83168601831297
:100300008601282A83168601FF3083128600282A58
:100310008030A200A301A2080319A3298316860135
:100320008312220886000430A800FA30A9000221B6
:10033000A80B95290310220CA3002308A202A208EF
:100340000319A3298B29282A0130A400A501240818
:10035000803C031CBB298316860183122408860077
:100360000430A800FA30A9000221A80BB22903101A
:10037000240DA500A729282A8030A600831686010F
:100380008312260886000430A800FA30A900022152
:10039000A80BC5290310A60C831686018312260814
:1003A00086000430A800FA30A9000221A80BD32946
:1003B000260BCA290130A60083168601831226085F
:1003C00086000430A800FA30A9000221A80BE32916
:1003D0002608A607831686018312260886000430A5
:1003E000A800FA30A9000221A80BF1292608803CB8
:1003F000031DE829282AA7012708043C031C272AF3
:1004000083168601FF3083128600703003178D003B
:1004100000308F000313B5200430A800FA30A90083
:100420000221A80B0E2A83168601831286017F30D3
:1004300003178D0000308F000313B5200430A8008F
:10044000FA30A9000221A80B202AA70AFC29282A91
:0604500083162829630059
:023E00000800B8
:02400E00723FFF
:00000001FF
;PIC16F877
;CRC=4C76  CREATED="19-Ene-17 01:27"
