:1000000000308A009B2800002508F700F708031934
:1000100046280130770203194A2802307702031973
:100020004E2803307702031952280430770203194F
:1000300056280530770203195A280630770203192B
:100040005E28073077020319622808307702031907
:1000500066280930770203196A280A3077020319E3
:100060006E280B307702031972280C3077020319BF
:1000700076280D30770203197A280E30770203199B
:100080007E280F3077020319822886283F30F80037
:10009000872887280630F800872887285B30F800F3
:1000A000872887284F30F800872887286630F8008F
:1000B000872887286D30F800872887287D30F8004A
:1000C000872887280730F800872887287F30F8009E
:1000D000872887286730F800872887287730F80036
:1000E000872887287C30F800872887283930F8004F
:1000F000872887285E30F800872887287930F8001D
:10010000872887287130F8008728872887280034B7
:1001100026308400000803199A280630F800F701F9
:10012000F70B9028F80B8F287B30F700F70B9628F9
:10013000800B8D28003484011F3083050630831620
:100140009F000F308312A000A101A201FF30A30085
:100150002008A5000420003083168600831278084A
:1001600086002108A50004200030A3008316870024
:10017000831278088700FF308316850083120508F4
:10018000A4002408F700013077020319D8280230B0
:1001900077020319F228043077020319082908307E
:1001A000770203193929103077020319542970296D
:1001B0002008A2002108A0002208A1002008A50014
:1001C00004200030831686008312780886002108F8
:1001D000A50004200030A30083168700831278084E
:1001E00087007029A001A1012008A500042000308B
:1001F000831686008312780886002108A500042053
:100200000030A300831687008312780887007029C6
:1002100000308316860083128601A30083168700B0
:10022000831287010430A500FA30A6008820A50BB0
:1002300014292008A50004200030831686008312AC
:10024000780886002108A50004200030A30083164A
:1002500087008312780887000430A500FA30A600D2
:100260008820A50B2E292408043C031938290829C5
:100270007029A10A2108103C031D4029A101A00AF0
:100280002008A50004200030831686008312780819
:1002900086002108A50004200030A30083168700F3
:1002A0008312780887007029A10321080E3C031CE3
:1002B0005C290F30A100A0032008A5000420003015
:1002C000831686008312780886002108A500042082
:1002D0000030A300831687008312780887007029F6
:0402E000BB286300D4
:023E000000348C
:02400E00FE3F73
:00000001FF
;PIC16F877
