:020000040000FA
:020000000528D1
:06000A0086018601831649
:10001000031307309F00FF308500003086008312F5
:1000200005191C28132885181928162805182128B1
:100030001F2805182F282428051847283A28860144
:100040001028FF308600102803108030860008300A
:10005000A0004F20860CA0030319102829280310A4
:10006000803086000830A0004F20860DA0030319C1
:10007000102834280310803086000830A0004F205C
:10008000860CA003031D3F280830A0003428FF3051
:1000900086004F20003086004F201028472820304F
:1000A000A1005030A2006030A300A30B5528A20B82
:0800B0005328A10B51280800A0
:00000001FF
